S01A00006C65645F64656D6F5F4652444D2D4B3634462E7372656321
S113A0000004FF1F9DA3000073A50000A3A500008A
S113A010B9A50000BBA50000BDA50000000000001C
S113A0200000000000000000BFA50000C1A5000062
S113A03000000000C3A50000C5A50000C7A50000DE
S113A040C7A50000C7A50000C7A50000C7A500005C
S113A050C7A50000C7A50000C7A50000C7A500004C
S113A060C7A50000C7A50000C7A50000C7A500003C
S113A070C7A50000C7A50000C7A50000C7A500002C
S113A390C7A50000C7A50000C7A5000072B60E48F7
S113A3A00E4988600022002300240025002600278F
S113A3B0B846B946BA46BB46BC460948854609482C
S113A3C08047094880470948804762B60020002139
S113A3D0074A9047FEE7000000A0000000ED00E0FF
S113A3E00004FF1F3DA5000079A4000031A5000072
S113A3F093A500005FF0FF30334908605FF0FF3041
S113A400324908605FF0FF30314908605FF0FF3087
S113A410304908605FF0FF302F4908605FF0FF307B
S113A4202E4908605FF0FF302D4908605FF0FF306F
S113A4302C49086070475FF0FF302B4908605FF0DB
S113A440FF302A4908605FF0FF30294908605FF057
S113A450FF30284908605FF0FF30274908605FF04B
S113A460FF30264908605FF0FF30254908605FF03F
S113A470FF30244908607047234824490860244871
S113A4802449254A521A884207D004E00B78037005
S113A490491C401C521E002AF8D1204820490A1A9F
S113A4A003E000210170401C521E002AF9D11D480E
S113A4B01D491E4A521A04E00B780370491C401CC3
S113A4C0521E002AF8D1704780E100E084E100E0E8
S113A4D088E100E08CE100E090E100E094E100E03C
S113A4E098E100E09CE100E080E200E084E200E02A
S113A4F088E200E08CE200E090E200E094E200E018
S113A50098E200E09CE200E000A0000008ED00E01A
S113A5100000000000000000000000000000000037
S113A520000000000000FF1FD4A50000D4A5000017
S113A53080B5FFF75FFFFFF77EFF01BD03480068AA
S113A54050F4700001490860704700BF88ED00E0D6
S113A5504EF68851CEF20001086840F4700008609D
S113A560BFF34F8FBFF36F8F4FF00070E1EE100A0F
S113A5707047FEE700F00BF8002801D0C046C04643
S113A5800020C046C04600F004F800F003F80120A3
S113A5907047FEE700F000B80746384600F002F8BE
S113A5A0FBE7FEE780B5C046C046024A110018200A
S113A5B0ABBEFBE726000200FEE7FEE7FEE7FEE790
S113A5C0FEE7FEE7FEE7FEE7C046C046FFF7C0FF32
S107A5D0FFF7D0FFBE
S903A5C98E
